:020000040800F2
:10000000400B0020AD010008B5010008B701000851
:10001000B9010008BB010008BD0100080000000094
:10002000000000000000000000000000BF01000808
:10003000C101000800000000C30100088B01000896
:10004000C7010008C7010008C7010008C701000870
:10005000C7010008C7010008C7010008C701000860
:10006000C7010008C7010008C7010008C701000850
:10007000C7010008C7010008C7010008C701000840
:10008000C7010008C7010008C7010008C701000830
:10009000C7010008C7010008C7010008C701000820
:1000A000C7010008C7010008C7010008C701000810
:1000B000C7010008C7010008C7010008C701000800
:1000C000C7010008C7010008C7010008C7010008F0
:1000D000C7010008C7010008C7010008C7010008E0
:1000E000C7010008C7010008C701000800F002F8B6
:1000F00000F02CF80AA090E8000C82448344AAF196
:100100000107DA4501D100F021F8AFF2090EBAE893
:100110000F0013F0010F18BFFB1A43F0010318473B
:10012000EC030000FC03000000230024002500264F
:10013000103A28BF78C1FBD8520728BF30C148BF4A
:100140000B6070471FB51FBD10B510BD00F080F8E3
:100150001146FFF7F7FF00F03DF900F09EF803B4F9
:10016000FFF7F2FF03BC00F0A5F800000E4802689C
:10017000D2F800D0BDE8F00F0FBC5DF804CB01B0A1
:100180005DF804EB01B062B6704772B62DE9F00F6E
:1001900005480168C1F800D049680160D1F800D075
:1001A000BDE8F00F62B6704714050020094880478B
:1001B00009480047FEE7FEE7FEE7FEE7FEE7FEE749
:1001C000FEE7FEE7FEE7FEE704480549054A064B61
:1001D00070470000C5020008ED000008400500203F
:1001E000400B0020400700204007002002F0FF03E2
:1001F00043EA032242EA024200F005B87047704722
:1002000070474FF0000200B51346944696462039D9
:1002100022BFA0E80C50A0E80C50B1F12001BFF4BF
:10022000F7AF090728BFA0E80C5048BF0CC05DF825
:1002300004EB890028BF40F8042B08BF704748BF73
:1002400020F8022B11F0804F18BF00F8012B7047E7
:10025000754600F02BF8AE4605006946534620F07F
:100260000700854618B020B5FFF7AEFFBDE8204077
:100270004FF000064FF000074FF000084FF0000B62
:10028000AC46ACE8C009ACE8C009ACE8C009ACE8D1
:10029000C00921F007018D46704710B50446AFF341
:1002A00000802046BDE81040FFF759BF0048704766
:1002B0000000002001491820ABBEFEE72600020026
:1002C0007047000082B041F20400C4F2020050F80E
:1002D000041C002241F0010140F8041C0168CFF623
:1002E000FF021140016050F8041C4FF6FF72CFF678
:1002F000F662114040F8041C50F8041C21F48021DF
:1003000040F8041C016821F4FE0101604FF41F0154
:10031000416000210191009150F8041C41F48031AA
:1003200040F8041C50F8041C01F4003100910199BC
:1003300001310191009919B90199B1F5A06FF1D17D
:1003400050F8041C890354BF002101210091009939
:10035000012936D142F20001C4F202010A6842F0DA
:1003600010020A600A6822F007020A600A6842F076
:1003700002020A600168016001680160016841F4DD
:1003800080610160016821F47C110160016841F421
:10039000E811016050F8041C41F0807140F8041C21
:1003A00050F8041C8901FBD5016821F003010160AC
:1003B000016841F002010160016801F00C010829A7
:1003C000FAD14EF60850CEF200004FF00061016005
:1003D00002B0704700F058F840F2DD4040F2ED41C5
:1003E00040F2FD42C0F60000C0F60001C0F6000277
:1003F00000F006F8012000F051F800BFFEE7000011
:100400002DE9F04381B040F22457C2F2000740F2D8
:100410006404064607F11000C2F20004894672B671
:1004200007F10801F86004F5A8709046C7E90001DB
:100430004FF080753821AA227F61C4F88C51FFF7F4
:10044000D5FE04F538703821AA22C4F88861B86056
:10045000C4F81C53FFF7CAFE04F58E603821AA22A7
:10046000C4F818933861C4F8AC54FFF7BFFE40F2EB
:100470001450C2F20000C4F8A884076062B60120DC
:1004800001B0BDE8F083000040F2600041F6401189
:10049000C2F20000C0F20101016070474EF210018B
:1004A000CEF2000100220A608A6040F26002C2F2CD
:1004B000000212685043013848604EF62350CEF2D5
:1004C0000000F0220270086840F00500086008682B
:1004D00040F002000860FFF749BE000040F21850EB
:1004E000C2F20000016801310160FBE740F21C50DC
:1004F000C2F20000016801310160FBE740F22050C8
:10050000C2F20000016801310160FBE71C05000830
:0C05100000000020400B00002801000843
:04000005080000ED02
:00000001FF
